:020000020000FC
:100000000FEF0AB904B900EF07B950E00E940800E9
:100010006FE0652370EF75237295F0E0E4E7E60F7B
:100020006491F0E0E4E7E70F749101E005B96BB982
:100030000E944200009505B97BB90E9442000095DC
:1000400005B90E942700469B53950C94080010FFA9
:100050001D7F10FD1260309B1E7F309911601130A2
:1000600009F00895469902C0469B02C0469808953B
:10007000469A08953F065B4F666D7D077F6F5F7CF4
:10008000395E797198E0A8ECBAEF00000000BA95EB
:0C009000E1F7AA95C9F79A95B1F7089519
:00000001FF
