S00C00004C4142362E7372656313
S11300000C9434000C943E000C943E000C943E007E
S11300100C943E000C943E000C943E000C943E0064
S11300200C943E000C943E000C943E000C943E0054
S11300300C943E000C943E000C943E000C943E0044
S11300400C943E000C943E000C943E000C943E0034
S11300500C943E000C943E000C943E000C943E0024
S11300600C943E000C943E0011241FBECFEFD8E048
S1130070DEBFCDBF0E944B000C9463000C940000C3
S113008082E084BD85E085BD8BE987BD16BCA99B54
S1130090FECFA99A08955498229AD0E090E014E0F3
S11300A001C09C2F89B1C82FC07184FF03C0911176
S11300B001C0DF5F0E944000DA3099F785B18127E3
S10D00C085B9D0E0EECFF894FFCF2D
S9030000FC
