:100000000C9434000C9451000C9451000C94510049
:100010000C9451000C9451000C9451000C9451001C
:100020000C9451000C9451000C9451000C9451000C
:100030000C9451000C9451000C9451000C945100FC
:100040000C94C8010C9451000C9451000C94510074
:100050000C9451000C9451000C9451000C945100DC
:100060000C9451000C94510011241FBECFEFD8E026
:10007000DEBFCDBF11E0A0E0B1E0E4E4F5E002C0F6
:1000800005900D92A034B107D9F721E0A0E4B1E0CA
:1000900001C01D92A234B207E1F70E9492020C94B3
:1000A000A0020C9400008AB1806F8AB98BB18F6076
:1000B0008BB908958FE78BB985E38A95F1F7000036
:1000C00089B18F70809341018F3059F080FF4BC010
:1000D00081FF4BC082FF4BC0887009F44AC088E79B
:1000E00008958FEB8BB985E38A95F1F7000089B10C
:1000F0008F70809341018F3051F080FF3CC081FFB1
:100100003CC082FF3CC08870E1F188E708958FED24
:100110008BB985E38A95F1F7000089B18F708093E0
:1001200041018F3051F080FF2EC081FF2EC082FF31
:100130002EC0887071F188E708958FEE8BB985E342
:100140008A95F1F7000089B18F70809341018F305B
:1001500011F180FF22C081FF22C082FF22C088707F
:1001600011F188E7089581E3089582E3089583E318
:10017000089581E4089584E3089585E3089586E36E
:10018000089582E4089587E3089588E3089589E354
:10019000089583E4089588E7089585E4089580E349
:1001A000089586E4089584E408958BB18F708BB927
:1001B00089B18F70809341018F30D1F789B18F70F1
:1001C000809341018F30D1F38FE59AEE0197F1F7DB
:1001D00000C0000089B18F70809341018F30D1F34E
:1001E0000E945A00089595B19F7095B995B1282F36
:1001F000207F922B95B995B1926095B935E03A95EB
:10020000F1F7000095B19D7F95B9EFE8F1E03197E6
:10021000F1F700C0000095B19F7095B925B1F0E1EC
:100220008F9FC0011124822B85B985B1826085B969
:1002300035E03A95F1F7000085B18D7F85B98FE8FB
:1002400091E00197F1F700C00000089595B19E7FFD
:1002500095B90E94F300089595B1916095B90E94F7
:10026000F300089581E00E9426018FE89AE101974A
:10027000F1F700C0000008958EE00E94260187EC8F
:1002800090E00197F1F700C0000008958CE00E9413
:10029000260187EC90E00197F1F700C00000089577
:1002A00084B1806F84B984B1836084B985B18D7F56
:1002B00085B98FE39FE10197F1F700C0000083E368
:1002C0000E94260182E30E94260188E20E94260104
:1002D0008EE00E94260186E00E9426010E943201E3
:1002E0000895CF93DF9300D000D0CDB7DEB790E86C
:1002F000998390EC9A8394E99B8394ED9C83E62FF9
:10030000F0E0319721E030E02C0F3D1FE20FF31FAA
:100310009081890F81500E9426018FE891E001971A
:10032000F1F700C000000F900F900F900F90DF9139
:10033000CF9108950F931F93CF938C01C0E003C01A
:100340000E942C01CF5FF801EC0FF11D808181111B
:10035000F7CFCF911F910F9108950E9453000E94F3
:10036000500184B18C6084B9109280008DE080933C
:10037000810088E09DE3909389008093880014BCFD
:1003800085E085BDEEE6F0E08081816080830895A0
:100390001F920F920FB60F9211248F939F9380910B
:1003A00040018F5F809340018C3031F41092400106
:1003B00095B188E0892785B99F918F910F900FBEE5
:1003C0000F901F901895109285001092840086B3AC
:1003D000826086BBB19BFECF0895CF93DF930E94CE
:1003E000320180E091E00E949A010E94460116BC11
:1003F0007894C0E0D0E003C00E94E3012196CE31A2
:10040000D105D4F3F89485B1877F85B90E943C016A
:10041000DF91CF910895FF920F931F93CF93DF93B6
:10042000CDB7DEB72A970FB6F894DEBF0FBECDBFAB
:1004300085E0EAE3F1E0DE01119601900D928A95E4
:10044000E1F7F12C0E9432018EE091E00E949A01C6
:1004500062E081E00E94710100E010E00EC00E94A5
:10046000D500E6E0F0E0EC0FFD1FE00FF11F808308
:100470008AE20E942C010F5F1F4F043011057CF3AC
:100480001A86BE016A5F7F4FCE0101960E949702D5
:10049000892BD9F40E9446010E9432018DE191E03E
:1004A0000E949A0185B1846085B900E010E004C023
:1004B0000E94E3010F5F1F4F0A301105CCF385B195
:1004C0008B7F85B90E943C0121C00E9446010E9499
:1004D00032018CE291E00E949A0185B1886085B971
:1004E0000E943C01F39423E0F21203C00E94ED014C
:1004F000F12C8FEF93ED20E3815090402040E1F705
:1005000000C0000085B1877F85B99CCF2A960FB6C1
:10051000F894DEBF0FBECDBFDF91CF911F910F9139
:10052000FF9008950E94AD010E940B02FDCFFB01D8
:10053000DC018D91019080190110D9F3990B089578
:04054000F894FFCF5D
:100544004C6F636B646F776E204D6F646500456E0E
:100554007465722050617373636F646500416363F3
:10056400657373204772616E7465640041636365EB
:1005740073732044656E6965640032353434000059
:00000001FF
