S00C00004C6162372E73726563D2
S11300000C9434000C9446000C945D000C9446004F
S11300100C9446000C9446000C9446000C94460044
S11300200C9446000C9446000C9446000C948D00ED
S11300300C9446000C9446000C9446000C94460024
S11300400C9446000C9446000C9446000C94460014
S11300500C9446000C9446000C9446000C94460004
S11300600C9446000C94460011241FBECFEFD8E038
S1130070DEBFCDBF21E0A0E0B1E001C01D92A13000
S1130080B207E1F70E9448000C94AA000C94000007
S113009087EF8AB9569A82E08DBB8CE08093690021
S11300A0109280008DE0809381008AE197EB909319
S11300B08900809388007894FFCF1F920F920FB627
S11300C00F9211248F93EF93FF938091000181117C
S11300D00CC0E9E6F0E080818860808380818B7FBA
S11300E0808381E08093000107C0E9E6F0E080812D
S11300F08C6080831092000110928500109284001D
S1130100EFE6F0E0808182608083FF91EF918F9130
S11301100F900FBE0F901F9018951F920F920FB65D
S11301200F9211248F93EF93FF93809100018130FC
S113013019F480E48BB901C05E98EFE6F0E08081A9
S11301408D7F8083FF91EF918F910F900FBE0F9061
S10B01501F901895F894FFCFED
S9030000FC
