:100000000C9434000C943E000C943E000C943E0082
:100010000C943E000C943E000C943E000C943E0068
:100020000C943E000C943E000C943E000C943E0058
:100030000C943E000C943E000C943E000C943E0048
:100040000C943E000C943E000C943E000C943E0038
:100050000C943E000C943E000C943E000C943E0028
:100060000C943E000C943E0011241FBECFEFD8E04C
:10007000DEBFCDBF0E94A7000C94D3000C940000FB
:100080009093C5008093C40088E18093C1008EE006
:100090008093C2000895E0ECF0E0908195FFFDCFE1
:1000A0008093C6000895CF93DF93EC018881882365
:1000B00031F021960E944B0089918111FBCFDF9195
:1000C000CF91089581E080937C0086E880937A0048
:1000D0000895ECE7F0E09081907F8F70892B80830A
:1000E000EAE7F0E0808180648083808186FDFDCF37
:1000F00080917800909179000895FB0199E2899FA1
:10010000912D112492959F70905D90839DEC899F15
:10011000212D1124269526952695299F912D112470
:10012000969596959695990F392F330F330F930F18
:10013000322F391B932F905D9183220F922F990FAD
:10014000990F290F821B805D828313820895CF93BC
:10015000DF9300D000D0CDB7DEB787E690E00E94F5
:1001600040000E94620080E00E9469009695879599
:1001700096958795BE016F5F7F4F0E947D00CE01EF
:1001800001960E9453008DE00E944B008AE00E947D
:100190004B002FEF81EE94E0215080409040E1F73A
:0A01A00000C00000E0CFF894FFCF8C
:00000001FF
