S01300005465726D50726F6A6563742E73726563A2
S11300000C9434000C9451000C9451000C94510045
S11300100C94DF030C9451000C9451000C94510087
S11300200C9451000C9451000C9451000C94510008
S11300300C9451000C9451000C9451000C945100F8
S11300400C9451000C9451000C9451000C945100E8
S11300500C9451000C9451000C9451000C945100D8
S11300600C9451000C94510011241FBECFEFD8E022
S1130070DEBFCDBF11E0A0E0B1E0ECE0F8E002C0EB
S113008005900D92A039B107D9F721E0A0E9B1E0BC
S113009001C01D92A239B207E1F70E94D3030C9468
S11300A004040C9400008AB1806F8AB98BB18F600C
S11300B08BB908958FE78BB985E38A95F1F7000032
S11300C089B18F70809391018F3059F080FF4BC0BC
S11300D081FF4BC082FF4BC0887009F44AC088E797
S11300E008958FEB8BB985E38A95F1F7000089B108
S11300F08F70809391018F3051F080FF3CC081FF5D
S11301003CC082FF3CC08870E1F188E708958FED20
S11301108BB985E38A95F1F7000089B18F708093DC
S113012091018F3051F080FF2EC081FF2EC082FFDD
S11301302EC0887071F188E708958FEE8BB985E33E
S11301408A95F1F7000089B18F70809391018F3007
S113015011F180FF22C081FF22C082FF22C088707B
S113016011F188E7089581E3089582E3089583E314
S1130170089581E4089584E3089585E3089586E36A
S1130180089582E4089587E3089588E3089589E350
S1130190089583E4089588E7089585E4089580E345
S11301A0089586E4089584E408958BB18F708BB923
S11301B089B18F70809391018F30D1F789B18F709D
S11301C080939101309902C08F30C1F38FE59AEE8C
S11301D00197F1F700C0000089B18F7080939101FD
S11301E0309905C08F30C1F30E945A00089580E011
S11301F0089595B19F7095B995B1282F207F922BC2
S113020095B995B1926095B935E03A95F1F700004A
S113021095B19D7F95B9EFE8F1E03197F1F700C012
S1130220000095B19F7095B925B1F0E18F9FC00191
S11302301124822B85B985B1826085B935E03A9560
S1130240F1F7000085B18D7F85B98FE891E00197C2
S1130250F1F700C00000089595B19E7F95B90E9402
S1130260F900089595B1916095B90E94F900089537
S113027081E00E942C018FE89AE10197F1F700C018
S1130280000008958EE00E942C0187EC90E0019715
S1130290F1F700C0000008958CE00E942C0187EC67
S11302A090E00197F1F700C00000089584B1806FD9
S11302B084B984B1836084B985B18D7F85B98FE3B6
S11302C09FE10197F1F700C0000083E30E942C0135
S11302D082E30E942C0188E20E942C018EE00E949D
S11302E02C0186E00E942C010E9438010895CF93CE
S11302F0DF9300D000D0CDB7DEB790E8998390ECBF
S11303009A8394E99B8394ED9C83E62FF0E03197E4
S113031021E030E02C0F3D1FE20FF31F9081890F85
S113032081500E942C018FE891E00197F1F700C001
S113033000000F900F900F900F90DF91CF910895D0
S11303400F931F93CF938C01C0E003C00E9432012E
S1130350CF5FF801EC0FF11D80818111F7CFCF91B0
S11303601F910F9108950E9453000E94560187B176
S11303708C7F87B987B1846087B9109280008DE043
S11303808093810088E09DE39093890080938800A6
S1130390ECE6F0E08081816080838BB382608BBB6C
S11303A078940895EF92FF920F931F93CF93DF9366
S11303B0CDB7DEB72A970FB6F894DEBF0FBECDBF18
S11303C085E0E0E4F1E0DE01119601900D928A955A
S11303D0E1F70E94380180E091E00E94A00162E010
S11303E081E00E9477018FE091E00E94A00100E08B
S11303F010E074C00E94D5000F2EF6E0EF2EF12C11
S1130400F02DEC0EFD1EE00EF11EF70180838AE252
S11304100E943201F7018081811130C0043011053E
S113042009F460C00E944C010E94380186E091E00A
S11304300E94A00162E081E00E94770189E191E0DD
S11304400E94A001FFEF27EA81E6F150204080409E
S1130450E1F700C000000E94380180E091E00E94B2
S1130460A00162E081E00E9477018FE091E00E94A8
S1130470A0010E9442010FEF1FEF2EC004301105AE
S113048059F50E94380186E091E00E94A00162E0E3
S113049081E00E94770189E191E00E94A0010E941D
S11304A04C019FEFE7EAF1E69150E040F040E1F7BC
S11304B000C000000E94380180E091E00E94A00189
S11304C062E081E00E9477018FE091E00E94A00148
S11304D00E9442010FEF1FEF0F5F1F4F0530110500
S11304E00CF488CFBE016A5F7F4FCE0101960E9453
S11304F0FB03892BA1F40E944C010E94380182E283
S113050091E00E94A0012FEF87EA91E621508040FC
S11305109040E1F700C000000E94420114C00E9414
S11305204C010E94380181E391E00E94A001EFEFA9
S1130530F7EA21E6E150F0402040E1F700C0000076
S11305400E94420146CF2A960FB6F894DEBF0FBE32
S1130550CDBFDF91CF911F910F91FF90EF90089540
S1130560282F392F2031310538F42A30310510F481
S1130570805D0895895C089580E0089590ED980F5A
S11305809A3018F490E0C09708959FEB980F963036
S113059018F490E0C79708958FEF9FEF0895109295
S11305A085001092840086B3826086BB04C080916B
S11305B09001811102C0B19BFACF08958F929F924E
S11305C0AF92BF92CF92DF92EF92FF921F93CF939D
S11305D0DF930E94380185E491E00E94A00162E06B
S11305E081E00E947701C0E0D0E0812C912C54017D
S11305F04FC00E94D500F82E811103C01C2F11504A
S11306004CC0C830D105F1F40E9438010E944C015D
S113061084E591E00E94A0012FEF37EA41E62150E2
S113062030404040E1F700C0000085E491E00E94C2
S1130630A0010E94420162E081E00E947701C0E0D3
S1130640D0E025C00E9432018F2D0E94BE0280316D
S113065050F00E94380182E691E00E94A0018F2DA3
S11306600E94320194C0880C991CAA1CBB1C880CE3
S1130670991CAA1CBB1C880C991CAA1CBB1C880CAA
S1130680991CAA1CBB1C880E911CA11CB11C219690
S1130690C930D1050CF4ADCF10E03099FECF8FE511
S11306A09AEE0197F1F700C00000E8E6F0E08081DF
S11306B0826080830E944C01750164013AC00E94EB
S11306C0380161E081E00E9477018AE691E00E94AE
S11306D0A00162E081E00E947701C12FD0E017C041
S11306E0CE01880F991F880F991FA701960104C096
S11306F056954795379527958A95D2F7DA01C9011A
S11307008F7090E00E94B0020E9432012197DD2395
S11307103CF780919001813029F410929001750189
S1130720640107C00E94CF0231E0C31AD108E10876
S1130730F108C114D104E104F10409F6E8E6F0E09B
S113074080818D7F80830E94380161E084E00E9473
S1130750770185E791E00E94A00162E081E00E94B8
S1130760770180E891E00E94A00188B1846088B993
S1130770309BFECF8FE59AEE0197F1F700C00000A1
S11307803099FECF88B18B7F88B90E944201DF91F6
S1130790CF911F91FF90EF90DF90CF90BF90AF90DB
S11307A09F908F9008950E94B3010E94D2010E94ED
S11307B0DE0231990E94D2010E94DE02FACF1F921A
S11307C00F920FB60F9211248F939F938FE59AEE99
S11307D00197F1F700C00000309B03C081E08093D3
S11307E090018BB382608BBB9F918F910F900FBE52
S11307F00F901F901895FB01DC018D9101908019D9
S10F08000110D9F3990B0895F894FFCF70
S113080C456E746572203420646967697473005092
S113081C617373776F72643A0070617373776F727C
S113082C6400416363657373204772616E7465641D
S113083C004163636573732064656E6965642100AC
S113084C32353434005365742074696D65722848EC
S113085C455829004D6178696D756D20386269744D
S113086C73004572726F72203A0054696D65722878
S113087C484558290054696D65277320757021000B
S113088C627574746F6E3D3E72657374617274003C
S9030000FC
